:100000000C9462000C948A000C948A000C948A0070
:100010000C948A000C948A000C948A000C948A0038
:100020000C948A000C948A000C948A000C948A0028
:100030000C948A000C948A000C948A000C948A0018
:100040000C9413030C948A000C9483030C945D03AA
:100050000C948A000C948A000C948A000C948A00F8
:100060000C948A000C948A000000000024002700F1
:100070002A0000000000250028002B0000000000DE
:1000800023002600290004040404040404040202DA
:100090000202020203030303030301020408102007
:1000A0004080010204081020010204081020000012
:1000B0000008000201000003040700000000000027
:1000C0000000C50511241FBECFEFD8E0DEBFCDBFB5
:1000D00011E0A0E0B1E0E4EFFBE002C005900D927A
:1000E000A631B107D9F721E0A6E1B1E001C01D9228
:1000F000AE3BB207E1F710E0C2E6D0E004C02197C2
:10010000FE010E94F205C136D107C9F70E94B5036E
:100110000C94F8050C940000833081F028F48130B1
:1001200099F08230A9F008958730A9F08830C9F09D
:100130008430B1F4809180008F7D03C08091800075
:100140008F7780938000089584B58F7784BD08955C
:1001500084B58F7DFBCF8091B0008F778093B00006
:1001600008958091B0008F7DF9CFCF93DF93282F32
:1001700030E0F901E255FF4F8491F901E656FF4F57
:10018000D491F901EA57FF4FC491CC23A1F081111A
:100190000E948C00EC2FF0E0EE0FFF1FE458FF4FA1
:1001A000A591B491EC91ED2381E090E009F480E019
:1001B000DF91CF91089580E090E0FACF1F93CF9325
:1001C000DF93282F30E0F901E255FF4F8491F901C8
:1001D000E656FF4FD491F901EA57FF4FC491CC2363
:1001E000A9F0162F81110E948C00EC2FF0E0EE0F89
:1001F000FF1FEE58FF4FA591B4918FB7F894EC9183
:10020000111108C0D095DE23DC938FBFDF91CF9111
:100210001F910895DE2BF8CFCF93DF9390E0FC0180
:10022000E656FF4F24918A579F4FFC018491882303
:10023000D1F090E0880F991FFC01E859FF4FA5917C
:10024000B491FC01EE58FF4FC591D49161110EC0DD
:100250009FB7F8948C91E22FE0958E238C932881A0
:10026000E223E8839FBFDF91CF9108958FB7F89481
:10027000EC91E22BEC938FBFF6CF1F93CF93DF93DC
:10028000182FEB0161E00E940C01CF3FD10539F43A
:1002900061E0812FDF91CF911F910C94DE00E12F5F
:1002A000F0E0E255FF4FE491E33039F148F4E130FA
:1002B000B9F0E230E9F0C038D10554F760E0E9CF99
:1002C000E73029F1E83059F1E430A9F78091800056
:1002D000806280938000D0938B00C0938A0004C01A
:1002E00084B5806884BDC7BDDF91CF911F9108950B
:1002F00084B5806284BDC8BDF7CF809180008068DE
:1003000080938000D0938900C0938800EDCF8091C6
:10031000B00080688093B000C093B300E5CF8091B7
:10032000B00080628093B000C093B400DDCF3FB7CF
:10033000F89480911D0190911E01A0911F01B09130
:10034000200126B5A89B05C02F3F19F00196A11DDD
:10035000B11D3FBFBA2FA92F982F8827BC01CD010F
:10036000620F711D811D911D42E0660F771F881F6E
:10037000991F4A95D1F708958F929F92AF92BF929D
:10038000CF92DF92EF92FF920E9497014B015C01A6
:1003900085E0C82ED12CE12CF12C0E949701681920
:1003A00079098A099B09683E734081059105A8F384
:1003B00021E0C21AD108E108F10888EE880E83E036
:1003C000981EA11CB11CC114D104E104F10429F749
:1003D000FF90EF90DF90CF90BF90AF909F908F9065
:1003E0000895AF92BF92CF92DF92EF92FF920F9358
:1003F0001F93CF93DF936C017B018B01040F151FBB
:10040000EB015E01AE18BF08C017D10759F0699122
:10041000D601ED91FC910190F081E02DC601099586
:10042000892B79F7C501DF91CF911F910F91FF9033
:10043000EF90DF90CF90BF90AF900895FC01538D67
:10044000448D252F30E0842F90E0821B930B5417AE
:1004500010F0CF96089501970895FC01918D828D3B
:10046000981761F0A28DAE0FBF2FB11D5D968C91D4
:10047000928D9F5F9F73928F90E008958FEF9FEF13
:100480000895FC01918D828D981731F0828DE80FCF
:10049000F11D858D90E008958FEF9FEF0895FC0189
:1004A000918D228D892F90E0805C9F4F821B910956
:1004B0008F739927089581E291E00E944F0221E015
:1004C000892B09F420E0822F089580E090E0892BA9
:1004D00029F00E945B0281110C9400000895FC0138
:1004E000A48DA80FB92FB11DA35ABF4F2C91848D95
:1004F00090E001968F739927848FA689B7892C93F2
:10050000A089B1898C91837080648C93938D848D44
:10051000981306C00288F389E02D80818F7D808347
:100520000895EF92FF920F931F93CF93DF93EC0107
:1005300081E0888F9B8D8C8D98131AC0E889F9898A
:10054000808185FF15C09FB7F894EE89FF8960838D
:10055000E889F98980818370806480839FBF81E00E
:1005600090E0DF91CF911F910F91FF90EF90089550
:10057000F62E0B8D10E00F5F1F4F0F731127E02E2B
:100580008C8D8E110CC00FB607FCFACFE889F98963
:10059000808185FFF5CFCE010E946F02F1CFEB8DF8
:1005A000EC0FFD2FF11DE35AFF4FF0829FB7F89437
:1005B0000B8FEA89FB8980818062CFCFCF93DF9355
:1005C000682F81E291E00E949102EC0142E050E04C
:1005D00062E171E081E291E00E94F1018C0F9D1FC8
:1005E000DF91CF910895CF93DF93EC01888D88231D
:1005F000B9F0AA89BB89E889F9898C9185FD03C086
:10060000808186FD0DC00FB607FCF7CF8C9185FF6A
:10061000F2CF808185FFEDCFCE010E946F02E9CF3E
:10062000DF91CF9108951F920F920FB60F92112470
:100630002F933F938F939F93AF93BF938091190113
:1006400090911A01A0911B01B0911C0130911801E9
:1006500023E0230F2D3758F50196A11DB11D2093DE
:1006600018018093190190931A01A0931B01B09374
:100670001C0180911D0190911E01A0911F01B0915C
:1006800020010196A11DB11D80931D0190931E01B3
:10069000A0931F01B0932001BF91AF919F918F91C3
:1006A0003F912F910F900FBE0F901F90189526E845
:1006B000230F0296A11DB11DD2CF1F920F920FB62C
:1006C0000F9211242F933F934F935F936F937F93D8
:1006D0008F939F93AF93BF93EF93FF9381E291E04A
:1006E0000E946F02FF91EF91BF91AF919F918F9107
:1006F0007F916F915F914F913F912F910F900FBE1E
:100700000F901F9018951F920F920FB60F92112401
:100710002F938F939F93EF93FF93E0913101F0918B
:1007200032018081E0913701F091380182FD1BC0D8
:10073000908180913A018F5F8F7320913B018217E6
:1007400041F0E0913A01F0E0EF5DFE4F958F80932C
:100750003A01FF91EF919F918F912F910F900FBED2
:100760000F901F9018958081F4CF789484B58260A3
:1007700084BD84B5816084BD85B5826085BD85B545
:10078000816085BD80916E00816080936E001092C3
:10079000810080918100826080938100809181003E
:1007A00081608093810080918000816080938000CF
:1007B0008091B10084608093B1008091B00081602D
:1007C0008093B00080917A00846080937A00809159
:1007D0007A00826080937A0080917A0081608093B1
:1007E0007A0080917A00806880937A001092C1002C
:1007F00061E085E00E940C0161E086E00E940C014E
:1008000061E087E00E940C0161E088E00E940C0139
:1008100061E08CE00E940C0161E08DE00E940C011F
:1008200060E082E00E940C0160E083E00E940C0125
:10083000E0913101F091320182E08083E0912D015D
:10084000F0912E011082E0912F01F09130018FEC98
:10085000808310923901E0913501F091360186E0F4
:100860008083E0913301F091340180818061808345
:10087000E0913301F0913401808188608083E091C0
:100880003301F0913401808180688083E0913301ED
:10089000F091340180818F7D808380E0E82E80E0BC
:1008A000F82EC1E081E291E00E944F02181619066D
:1008B0000CF035C181E291E00E942D028093170176
:1008C0000E94DE0280911701873509F070C00E94F6
:1008D000DE02C093160180911601882319F382E08D
:1008E0000E94B5008C0183E00E94B5000130110523
:1008F000F1F58130910509F01EC164E670E085E0F4
:100900000E943D0164E670E086E00E943D010E9485
:10091000BC0160E088E00E94DE0061E087E00E94A8
:10092000DE0060E08DE00E94DE0061E08CE00E946D
:10093000DE000E94BC0161E088E00E94DE0060E011
:1009400087E00E94DE0061E08DE00E94DE0060E052
:100950008CE00E94DE0081E291E00E942D028093F3
:100960001701873709F0B7CF10921601B4CF012BCA
:1009700091F78130910509F0F3C064E670E085E0FD
:100980000E943D0164E670E086E00E943D010E9405
:10099000BC0161E088E00E94DE0060E087E00E9428
:1009A000DE0060E08DE00E94DE0061E0D1CF8535A1
:1009B00009F078CFC093160180911601882309F4BD
:1009C00071CF81E291E00E942D028093170186345D
:1009D000E9F46FEF70E085E00E943D016FEF70E099
:1009E00086E00E943D010E94BC0161E087E00E9418
:1009F000DE0060E088E00E94DE0061E08CE00E94A2
:100A0000DE0060E08DE00E94DE00D6CF8234D1F4BB
:100A10006FEF70E085E00E943D016FEF70E086E0CF
:100A20000E943D010E94BC0160E087E00E94DE0060
:100A300061E088E00E94DE0060E08CE00E94DE0061
:100A400061E0E0CF823571F46FEF70E085E00E94E5
:100A50003D016FEF70E086E00E943D010E94BC0105
:100A600060E0C4CF8C34B1F46FEF70E085E00E9499
:100A70003D016FEF70E086E00E943D010E94BC01E5
:100A800061E087E00E94DE0060E088E00E94DE0016
:100A900060E0B4CF833571F46FEF70E085E00E94C1
:100AA0003D016FEF70E086E00E943D010E94BC01B5
:100AB00060E0E7CF8734C1F2883491F46FEF70E0E3
:100AC00085E00E943D016FEF70E086E00E943D01ED
:100AD0000E94BC0160E087E00E94DE0061E0D5CFAB
:100AE000893409F4B1CF8A3491F46FEF70E085E076
:100AF0000E943D016FEF70E086E00E943D010E9480
:100B0000BC0160E087E00E94DE0060E092CF8537A4
:100B100009F052CF0E94DE02109216014DCFE1146F
:100B2000F10409F4BFCE0E945B02882309F4BACE17
:100B30000E940000B7CE892B09F00DCF64E670E06B
:100B400085E00E943D0164E670E086E00E943D0180
:100B50000E94BC0160E088E00E94DE0061E0F0CE0F
:100B6000892B09F0F8CE64E670E085E00E943D0133
:100B700064E670E086E00E943D010E94BC0160E0F6
:100B800088E00E94DE0061E009CFE1E2F1E013823B
:100B9000128288EE93E0A0E0B0E084839583A68380
:100BA000B78384E091E09183808385EC90E0958722
:100BB000848784EC90E09787868780EC90E0918B27
:100BC000808B81EC90E0938B828B82EC90E0958B14
:100BD000848B86EC90E0978B868B118E128E138E11
:100BE000148E0895EE0FFF1F0590F491E02D0994E7
:040BF000F894FFCFA7
:100BF400000000009102F1011E02F3024F022D02D7
:060C040041020D0A000090
:00000001FF
